:020000040800F2
:10000000C0090020350200087B4200089D4100081D
:1000100079420008B92900083546000800000000B0
:100020000000000000000000000000007F42000807
:10003000D72B0008000000007D4200088142000824
:100040004F0200084F0200084F0200084F0200084C
:100050004F0200084F0200084F0200084F0200083C
:100060004F0200084F0200084F0200084F0200082C
:100070004F0200084F0200084F0200084F0200081C
:100080004F0200084F0200084F0200084F0200080C
:100090004F0200084F0200084F0200084F020008FC
:1000A0004F0200084F0200084F0200084F020008EC
:1000B0004F0200084F020008E54200084F02000806
:1000C0004F0200084F0200084F0200084F020008CC
:1000D0004F020008114600081D4600082946000886
:1000E0004F0200084F0200084F02000800F002F81B
:1000F00000F090F80AA090E8000C82448344AAF132
:100100000107DA4501D100F085F8AFF2090EBAE82F
:100110000F0013F0010F18BFFB1A43F0010318473B
:100120000C5D00002C5D0000103A24BF78C878C137
:10013000FAD8520724BF30C830C144BF04680C60ED
:10014000704700000023002400250026103A28BF35
:1001500078C1FBD8520728BF30C148BF0B60704739
:100160006E2900F02B82702900F06D83662905F05E
:100170001C85652905F01985672905F01685612913
:1001800005F0158503681B0A28BF41F08001692925
:1001900000F0D881642900F0D581752900F0D28162
:1001A0006F2900F0FA82782900F03983E92900F0FC
:1001B0009582E42900F09282F52900F08F82EF29E0
:1001C00000F0F782F82900F038830368DB0928BFC4
:1001D00041F08001632901F0D180732901F0D680BC
:1001E000E32901F0E180F32901F0E6800020704767
:1001F0001FB501F0EBF904000020002104F062FEBD
:10020000401C60600020002104F072FEE0601FBD11
:1002100010B510BD01F0B4F91146FFF7E9FF04F085
:10022000E3FB01F0CBFA03B4FFF7F2FF03BC01F0EC
:100230004BFD00000948804709480047FEE7FEE7FC
:10024000FEE7FEE7FEE7FEE7FEE7FEE7FEE7FEE786
:1002500004480549054A064B70470000E142000882
:10026000ED000008C0030020C0090020C0050020E8
:10027000C0050020B2F120030AD5C2F1200320FA04
:1002800002F001FA03F321FA02F140EA0300704799
:1002900021FA03F04FF00001704700001CB50C4636
:1002A000064B7B4469460090204600F0A0F90446C6
:1002B0000020694600F0AEF920461CBD6F03000027
:1002C00070B5064600F0D8F80468054630460A22A4
:1002D000002100F094FB2C6070BD0000014A00F08A
:1002E000C7BB00007800002030B505460B462A4603
:1002F00013F8014B12F8010B08B1A042F8D01CB161
:10030000002802D06D1CF1E7284630BD10B5431C13
:1003100002E010F8011B71B18107FAD14FF00132F0
:1003200002C88C1A8C4314EAC211F9D0C01A0A060A
:1003300003D0C01E10BDC01A10BD0A0401D0801E1B
:1003400010BD0902FCD0401E10BD4FF0000200B5E8
:10035000134694469646203922BFA0E80C50A0E8E8
:100360000C50B1F12001BFF4F7AF090728BFA0E896
:100370000C5048BF0CC05DF804EB890028BF40F862
:10038000042B08BF704748BF20F8022B11F0804FA4
:1003900018BF00F8012B704710B5044610F0030F8A
:1003A00008BF11F0030F40F015804FF0013E121FFF
:1003B000C0F20E8051F8043BA3EB0E0C2CEA030CA8
:1003C0001CEACE1C08BF40F8043BF0D0A1F10401A8
:1003D00002F10402521E08DB11F8013B002B00F869
:1003E000013BF7D1114600F065FB204610BD00002F
:1003F0004FF0013C50F8042B51F8043B9A4221D1B4
:10040000A2EB0C03934313EACC1317D150F8042B3F
:1004100051F8043B9A4215D1A2EB0C03934313EA23
:10042000CC130BD150F8042B51F8043B9A4209D15C
:10043000A2EB0C03934313EACC13DBD04FF0000084
:10044000704700BFD01A01BAB1FA81F101F018016A
:1004500022FA01F0CB40C1F12001DBB2C0B2C01AD8
:100460002CFA01F3D11A914311EAC311E6D1704776
:100470007047704770470000004870475C030020D9
:1004800070B5044685690068C10601D5302600E0D4
:100490002026C00707D070BDD4E90121304690471F
:1004A000206A401C20626D1EF6D570BD70B50446F2
:1004B00085690078C00707D170BDD4E901212020EB
:1004C0009047206A401C20626D1EF6D570BD0968F9
:1004D0004A0501D540B27047C905FCD500B2704746
:1004E00009684A0501D5C0B27047C905FCD580B27C
:1004F000704770B50C460546012A05D0287880065D
:1005000000D5EA69002302E0012305E05B1C934269
:1005100002D2E05C0028F9D1A869E618C01AA861E7
:10052000286A184428622846FFF7AAFF04E0D5E9A4
:10053000012114F8010B9047B442F8D32846FFF785
:10054000B5FF70BD2DE9F0410646002410687529FD
:10055000314616A510D0FFF7BAFF002802DA404254
:1005600013A507E031688A0701D512A502E0490703
:1005700004D511A5012401E0FFF7B2FF00210A22F2
:1005800006F1240709E0B0FBF2FCB0FBF2F302FB3A
:100590001C00303078541846491C0028F3D12346FB
:1005A0002A463046BDE8F04100F0F7BA00000000EE
:1005B0002D0000002B0000002000000011680268E0
:1005C000006A530501D508700AE0D30501D50880FB
:1005D00006E0130603D5C217C1E9000200E0086077
:1005E0000120704701694A1C02610878704700B514
:1005F0008FB0CDE901310021059105497944CDE95C
:1006000003101146684600F029F90FB000BD000044
:10061000E5FFFFFF0A6802F8010B0A60704700005F
:100620002DE9FF5F15468A460446DFF8AC80F844A2
:100630000027D8E900103E46CDE9001010E03AF856
:1006400016106A4602A800F05DFF411C07D0217811
:10065000890603D5E269391891420DD80744761C02
:100660002078800602D5E069B84205DDAE42E6DBBF
:100670003AF816000028E2D1A069C01BA06120460C
:10068000FFF7FEFED8E90010CDE90010002017E0CA
:100690003AF818106A4602A800F034FFB0F1FF3FA4
:1006A00081460BD000250DF1080B05E0D4E90121AE
:1006B0001BF8050090476D1C4D45F7D308F101006C
:1006C000B0428046E4DB206A384420622046FFF7CF
:1006D000EDFEBDE8FF9F0000AE5600002DE9F041A1
:1006E0008046D21D22F007020025D2E90002F5293A
:1006F00015A614D0011E72F1000106DA0023D0EB1A
:10070000030063EB020211A608E0D8F800108B0783
:1007100001D50FA602E0490701D50EA60125114615
:10072000002408F1240704E000F0F2F930323A55D1
:10073000641C50EA0102F7D12B463246214640465E
:10074000BDE8F04100F029BA000000002D000000D3
:100750002B0000002000000030B4002100F1240430
:1007600008E002F00705D208303542EA4372DB08A0
:100770006554491C52EA0305F3D10468002310A212
:10078000250707D5A40600D421B1C46901230DA211
:10079000641EC46130BC00F000BA10B504462146A6
:1007A0001068FFF79DFE02462046BDE8104000237A
:1007B000D2E7D21D22F00701D1E90023CCE70000E7
:1007C0000000000030000000F0B40D46018809056B
:1007D00002D5214C7C4402E01F4C7C440E340021A5
:1007E00000F1240608E002F00F071209E75D42EA73
:1007F00003721B097754491C52EA0307F3D10278AC
:100800000023120704D5702D06D009B1022311343C
:100810002246F0BC00F0C1B901231034F8E770B5EE
:1008200004460D4621461068FFF75AFE0246294647
:100830002046BDE870400023C6E7D21D22F0070322
:10084000D3E90023C0E70368126843F02003036084
:100850000823C3610023B7E7105500002DE9F05FBE
:10086000894604464FF0000ADFF874B1FB44C0F833
:1008700020A02046E1688847002874D0252806D0AB
:10088000D4E901219047206A401C2062F1E700264C
:100890005F462046E16888472028054607DB312D62
:1008A00005D2781910F8200C08B10643F1E7B0071B
:1008B00001D526F00406C4F81CA00027C4F818A02F
:1008C0002A2D09D0284603F05AFF38B304EB8708D5
:1008D000303DC8F8185019E059F8041B204604EBC5
:1008E00087029161E1688847012F054618D1E069C8
:1008F000002820DA26F020061DE0D8F8180000EBCA
:10090000800005EB40003038C8F818002046E16848
:100910008847054603F033FF0028EED1012F0AD0A7
:100920002E2D08D12046E16888477F1C0546022FFE
:1009300046F02006C4DBA069002803DA404246F0F6
:100940000106A061F00701D026F010066C2D0BD037
:10095000682D09D04C2D39D06A2D35D0742D35D065
:100960007A2D33D016E038E0E1682F4620468847DC
:10097000B842054609D16C2F26D04FF48060E1685B
:10098000064320468847054604E06C2F1AD04FF4F2
:10099000807006430DB3A5F14100192802D8203517
:1009A00046F400664A462946204626604E46FFF732
:1009B000D7FB80B101280BD0F61D26F0070000F10F
:1009C000080956E74020E4E78020D8E70020D6E772
:1009D00006F104094DE7284652E7206ABDE8F09F7A
:1009E000A05400007CB5054600236846CDE90033DD
:1009F00000F054FD6946284603F050FE7CBD2DE909
:100A0000F04791460F4680460446002614F8015BE5
:100A10002DB100F075F80068405DC007F6D12B2DB0
:100A200002D02D2D18D0641E4A463946204600F0CB
:100A3000C7FC27B13968A14201D1C7F800804FF047
:100A4000020471050BD54042002803DDFFF714FDB9
:100A50000460A007BDE8F08746F48066E4E700285C
:100A6000F8DAFFF709FD04606FF00040F2E70000DC
:100A70002DE9F04115460E46040002D12C6804B958
:100A80000BA4204600F06EFD0444207870B1274688
:100A90003146384600F056FD0444207810B100205D
:100AA00004F8010B38462C60BDE8F0810027F9E717
:100AB000000000004FF000020429C0F0128010F086
:100AC000030C3FF444ACCCF1040CBCF1020F18BF92
:100AD00000F8012BA8BF20F8022BA1EB0C01FFF7B7
:100AE00036BC5FEAC17C24BF00F8012B00F8012B63
:100AF00048BF00F8012B7047004870475C03002096
:100B000010B500F063FD001D10BD00BFB94300002B
:100B100030B5B0F10A024FEA900E71F100034EEACF
:100B2000817EB0EB0E0061EB91014FEA101E4EEAA0
:100B3000017E10EB0E0041EB11114FEA102E4EEA30
:100B4000016E10EB0E0041EB11214FEA104E4EEA00
:100B5000014E10EB0E0041EB1141401841F1000134
:100B60004FEAD00040EA41704FEAD10110EB800516
:100B70004FEA810444EA907444EB01046D1944EB9C
:100B80000404521BA3414FF0000348BF0A3200D5B2
:100B900030BD401C41F1000130BD2DE9F0470D464C
:100BA00099469246044600F124080168880604D557
:100BB000E06921F01001216000E00120A84201DD80
:100BC000471B00E00027A1697A1902EB0900081A07
:100BD000A0612078C00602D42046FFF751FC002611
:100BE00008E0D4E901211AF806009047206A401C69
:100BF000761C20624E45F4DB2078C0060AD52046DC
:100C0000FFF73EFC06E0D4E9012130209047206A3E
:100C1000401C2062381EA7F10107F4DC07E0D4E98C
:100C2000012118F805009047206A401C2062281E08
:100C3000A5F10105F3DC2046FFF738FC207800061B
:100C400002D50220BDE8F0870120FBE770472DE9BF
:100C5000FF4F0C461E464FF0FF378BB0D2E9000124
:100C6000DDF860800A908A46C1F30A5505B93D4611
:100C7000002108464FF00000BAF1000F00F44000D8
:100C800005DA00EB80004FF4400101EA50004FEA22
:100C90009059B9F1010F00DDB9460A9850EA4A00AF
:100CA0000ED044F61050A5F2FF3545432F14B8F18D
:100CB000000F1ED07542291E1EDDC9F100021CE086
:100CC000B8F1010F4FF0000001D0302103E0F243F2
:100CD00005E02154401CB042FBDB304600220021DD
:100CE00021540B99C1F80880C1E900200FB0BDE87C
:100CF000F08FBD1B6D1CDEE74A4600DA694206A88C
:100D000000F0EAFC06AB93E8070003AB83E80700BA
:100D100050460A9901F01CFA8DE80700A0F5005032
:100D20001F3800900398002D0ADD42F21F014A4649
:100D30000844002303A90390684601F0C7FC09E0BA
:100D4000A0F500504A461F38002303A903906846C7
:100D500001F0E6FC8DE807000004000C03D04FF022
:100D6000FF30410800E01046B8F1000F03D0002228
:100D7000009215461EE0751E05D4FFF7C9FE3032FD
:100D800062556D1EF9D5B3460122084302D00022F8
:100D90007F1C04E02078302801D100227F1E002A29
:100DA000099784D01DE0112D07DAFFF7B1FE30322C
:100DB00062556D1C50EA0102F5D1084302D000983B
:100DC000C8B10EE00021681E05E0235C625C63543C
:100DD0002254401E491C8142F7DBAB46A81B401E33
:100DE0000990002004F80B000B98099AC0F80880BD
:100DF000C0E9002B7AE711264FF0000857E72DE9EC
:100E0000F04F88460446D21D22F0070191B0D1E987
:100E10000001CDE90A0103F00EFC02460B98C00F59
:100E200001D02D2007E02068810701D52B2002E0AA
:100E3000202101EAC000032A099001D0072A05DB1E
:100E400003464146204600F0D9FB0BE1207880069E
:100E500001D5E06900E00620B8F1650F814606D0B3
:100E6000B8F1660F18D0B8F1670F70D131E00020EB
:100E7000B9F1110F009001DB112301E009F1010329
:100E80000AAA01A90CA8FFF7E2FEDDE90C70002612
:100E900009F10105834647E001204B4600904FF0E1
:100EA00000470AAA01A90CA8FFF7D1FEDDE90DB0A1
:100EB0000C995D46002610B909F101000D18B9EB37
:100EC000050003D4C0F1FF3609F10105A5EB0900C7
:100ED0002BE0B9F1010F01DA4FF001090020B9F15F
:100EE000110F0090484601DD112300E003460AAAD5
:100EF00001A90CA8FFF7ABFEDDE90C704D460026FA
:100F00008346207800070AD4AB4500DA5D4601A885
:100F1000012D04DD411911F8011C302907D04F457E
:100F200002DA17F1040F04DA012082460FE06D1E89
:100F3000EEE7002F02DCED1B3E4403E0781CA842E4
:100F400000DD7D1CB81B00F1010A4FF0004720783E
:100F5000000703D4AA4501DB4FF0FF3A0021B7F1A7
:100F6000004F0DF143088DF8431024D002202B23AD
:100F7000002F01DA7F422D230A21021EA0F1010079
:100F800000DC5FB197FBF1FC97FBF1F201FB1C7CED
:100F900017460CF1300C08F801CDEEE7A8F101007E
:100FA00003702188090501D5452100E06521A0F1E4
:100FB000010800F8011C09980FA9A1EB0807FF1D03
:100FC00000B10120411901EBEA70A1693844081A07
:100FD000401EA0612078C00602D42046FFF750FAD8
:100FE000099828B1D4E901219047206A401C206269
:100FF0002078C00622D52046FFF742FA1EE0002ED8
:1010000004DBB34502DD01A8805D00E03020D4E9B7
:1010100001219047206A401C2062761CAAF1010041
:101020005FEA000A0AD100F0D1FAC0680168405CAA
:10103000D4E901219047206A401C2062281EA5F1B6
:101040000105DCDC07E0D4E9012118F8010B904729
:10105000206A401C2062381EA7F10107F3DC2046FD
:10106000FFF724FA032011B041E600002DE9F04F0C
:1010700004460D46D21D22F0070089B0D0E9009742
:101080004846394603F0D7FA0246F80F01D02D231F
:1010900007E02068810701D52B2302E0202101EA27
:1010A000C0038DF820300BB1012000E00020032A9E
:1010B000824601D0072A04DB2946204600F09EFA2A
:1010C0003FE12078800601D40D2500E0E569C7F3F3
:1010D0000A560D2D49DA00214FEA175B08464FF0FA
:1010E0000000002F00F4400007DA00EB80004FF40E
:1010F000400100EBD07001EA60008115012901DD9B
:101100004FF0FF3100224FEA850CBCF1180F06D3D7
:101110001346ACF118004FF08052C24003E04FF488
:10112000801323FA0CF30CF10C0CBCF1200F04D348
:10113000ACF1200C09FA0CF001E007FA0CF00029E0
:101140004FF0004801DD18B90FE00ED140450CD337
:1011500019EB02095F4121B9404502D19F4329EAB9
:101160000209BBEB175F00D0761C2088000502D572
:101170007B48784402E07A487844193808AA30233A
:1011800002F80A30037C0AF10101002E0AF1020A7A
:1011900053546A4602DC4FF0300101E04FF0310158
:1011A0004FF001088DF8001002D0A6F2FF3603E0E0
:1011B00059EA470100D06B4E002D02DC2178090767
:1011C00004D54FF002082E218DF80110C4460021ED
:1011D0000BE0C7F303433F01C35C491C6D1E02F8DB
:1011E0000830052908F1010801DA002DF1DC0021A1
:1011F0000CE000EB1973491C1B786D1E082902F8DE
:1012000008304FEA091908F1010801DA002DF0DC75
:1012100021688B0602D516E0A8F10108E04505DD3E
:1012200002EB080313F8013C302BF5D0B8F1000FA6
:1012300009DD02EB080313F8013C2E2B03D109074B
:1012400001D4A8F10108002D05DD3E2102F80810A7
:101250006D1E08F10108407C002E02F8080008F11C
:10126000010804DA2D20764202F8080002E02B2063
:1012700002F808000A214FF47A70864208F101084A
:101280000BDB96FBF0F3303302F8083096FBF0F3FB
:1012900008F1010800FB136601E0642E0CDB6420FA
:1012A00096FBF0F3303302F8083096FBF0F308F1C8
:1012B000010800FB136601E00A2E06DB96FBF1F045
:1012C000303002F8080008F1010896FBF1F001FB4C
:1012D0001060303002F80800A16908F1010808EB3D
:1012E000050202EB0A00081AA0612078C00602D4A9
:1012F0002046FFF7C5F8216A08AE01EB0A0020621C
:1013000004E0D4E9012116F8010B9047BAF1010A73
:10131000F7D22078C00602D52046FFF7B1F86E4616
:1013200009E016F8010B3E280FD0D4E901219047BF
:10133000206A401C2062B8F10108F2D22046FFF773
:10134000B5F809B00320BDE8F08F206A2844206278
:1013500003E0D4E90121302090476D1EEBD3F8E77C
:10136000BE4B000002FCFFFF10B5436913B1AFF3A1
:10137000008001E0FFF7BDF8012010BD127800F1F8
:1013800024010A7000224A700122EDE711684FF033
:10139000FF32E9E710B5436913B1AFF3008001E014
:1013A000FFF73EF9012010BD128800F1240182846C
:1013B0000022C2840122EDE711684FF0FF32E9E715
:1013C0002DE9F05F824615468B4600270AF101049D
:1013D000B9460078302801D09DB113E014F8010B14
:1013E0000127782803D0582801D045B10AE00DB173
:1013F000102D07D1002714F8010B102502E0082555
:1014000000E00A250026B0460EE005FB080005FBBB
:1014100006F101271FFA80F801EB1046B6F5803F70
:1014200000D3B94614F8010B294600F027F900282B
:10143000EBDABBF1000F05D00FB1641E00E054469B
:10144000CBF80040B9F1000F06D0FFF715F80221E4
:101450000160C81EBDE8F09F48EA0640FAE70000B8
:101460000FB4002300B589B00CA900910B99CB6093
:10147000214B7B440693214B7B44079304236FF05D
:101480000042CDE901321E4A7A446B460892024678
:10149000002004F0EEFB09B05DF814FB70B50646C1
:1014A0004FF0FF3015460C46324686B00091CDE92C
:1014B000010169460020049004A8FFF7D1FF02460D
:1014C0000498211825B108B1084600E0204628609C
:1014D000049800280DD0002A02DD0098884208D028
:1014E0003246081B69460094CDE9010404A8FFF7C1
:1014F000B7FF06B070BD0000230200003B020000F1
:101500005F01000070B516460C460546FFF7F8FA75
:10151000036893F80101012806D0FF2C0FD8185D4D
:1015200068B101202C7070BDD3F807013246214606
:1015300003F2071303442846BDE8704018474FF0F4
:10154000FF3070BD30B503461D781DB10A4603E07B
:10155000AC4201D1181A30BD12F8014B002CF7D162
:101560005B1CF1E730B503461D783DB10A4612F821
:10157000014B1CB1AC42FAD15B1CF5E7181A30BD27
:101580007546FFF7B9FAAE4605006946534620F0A6
:101590000700854618B020B5FEF75AFEBDE820408A
:1015A0004FF000064FF000074FF000084FF0000B1F
:1015B00021F00701AC46ACE8C009ACE8C009ACE8D2
:1015C000C009ACE8C0098D4670470000004870476C
:1015D0007C03002010B5FEF74FFF006810BD10B56A
:1015E0000446FEF749FF046010BD10B50446FFF73E
:1015F00087FA0068005D00F0010010BD2DE9F041A0
:101600001F46044603260168072A01F4006004DB34
:1016100008B116A505E016A503E008B115A500E080
:1016200015A521F010002060A069C01EA0610FB1B7
:10163000401EA0612046FEF723FF4FB1D4E90121EF
:1016400038469047206A401C2062C01C206206E099
:10165000206AFAE7D4E9012115F8010B9047761EBC
:10166000F8D22046FEF722FFBDE8F0814E414E0041
:101670006E616E00494E4600696E66003A2800D2DF
:10168000303820F02002412A01D3A2F137008842ED
:1016900001D34FF0FF307047426842B1016811F842
:1016A000013B23B1521EC0E90012184670470121C8
:1016B000C160881E704742685AB1C368016843B967
:1016C00083688B4205D0491E521CC0E900120020DD
:1016D00070474FF0FF3070472DE9F04781461646BE
:1016E0008AB0354878440DC88DE80D0032487844FA
:1016F000801C03AC0DC884E80D0041F69B30084403
:10170000372190FBF1F290FBF1F5A5F1800501FB8B
:1017100012041B3C02D56442012000E00020DFF8E7
:1017200098A080460027FA44AAF1BE0A0EE0E0071E
:101730000AD03246684607EB470101230AEB8101D4
:1017400000F0EEFF8DE8070064107F1C002CEED146
:10175000194F7F44AE3F19E0E80715D007EB04109E
:101760000DF1180A90E80E008AE80E00C068F042F9
:1017700001D1981908903246012306A903A800F068
:10178000CFFF03AB83E807006D10641C002DE3D18D
:101790004FF0010332466946B8F1000F03A802D0AA
:1017A00000F094FF01E000F0BBFFC9E90001C9F8B7
:1017B00008200AB0BDE8F087DC46000010B50446FA
:1017C000AFF300802046BDE81040FEF72CBD0000BE
:1017D0002DE9FF4F06468BB00878FF2806D0491C3C
:1017E0002D2805D000244FF0000908E000200CE06F
:1017F0000124F8E709EB8903491C00EB4309087849
:10180000FF28F7D114B1C9F10000814610780025F6
:101810002C46AA4629462D2801D02B2804D1521C3B
:101820002D2813D0002082468B461078FF280FD039
:101830004FF0000C0A21521CA5FB017804FB01812A
:1018400005FB0C11C5194BEB0104EEE70120EAE79B
:10185000002108464FF00000BAF1000F02D000EB63
:1018600080004008C0F38157012F01DD4FF0FF37A2
:101870000E9955EA040009EB01080BD04FF002095C
:1018800018F5FA7F16DA4FEACA70002F706008DD8B
:10189000012007E04FEACA70C6E900B00FB0BDE80A
:1018A000F08F00203060FEF7E7FDC0F800901821AF
:1018B000084616E0B8F5FA7F18DD002F02DAF7487F
:1018C000784401E0F6487844D0E90010C6E90010F9
:1018D00040EACA707060FEF7CFFDC0F80090142196
:1018E00008460FB0BDE8F04F04F05CB9002108468F
:1018F0004FF00000B8F10001099002DAC7F10002D0
:1019000000E03A4601DAC8F1000106A8FFF7E4FE5C
:1019100006AB93E8070003AB83E8070044F23E0000
:101920005BEA04010090584604D144F21E012C46A3
:101930005D460091210C0904014306D1009924045D
:1019400044EA15442D041039009104F07F4101430D
:1019500006D10099240244EA15642D020839009149
:1019600004F07041014306D10099240144EA157442
:101970002D01091F009104F04041014306D1009957
:10198000A40044EA9574AD00891E009104F0004162
:10199000084304D100986D196441401E00904FF037
:1019A00001033A466846B8F1000FCDE9014503A9A5
:1019B00002DD00F0CAFE01E000F09DFEBAF1000F6A
:1019C00004460D4601D084F00044002108464FF043
:1019D0000000099940F2FF77484010F00C0F07D142
:1019E00024F00040284303D0C4F30A50B84212D177
:1019F000FEF742FDC0F80090C4F30A50B8420AD185
:101A0000A8487844D0E90010C6E9001004F000416D
:101A10000843706042E7C6E900543FE72DE9FF4FF5
:101A20001F464FF0000A4FF0FF38454691B0D7E906
:101A30000146CDF83CA0FFF7C9FDC0680168405CD5
:101A40001090B96912986D1C8847396A8146884799
:101A50000028F6D1B9F1FF3F0AD0002E24F4D0645B
:101A600011DDB9F12B0F08D0B9F12D0F0BD102E028
:101A7000404615B013E744F48064B96912986D1CB0
:101A80008847761E8146600504A901D52D2000E017
:101A90002B20002E01F1010B0DF130088DF8100004
:101AA0003FDDB9F1690F08D0B9F1490F05D0B9F19F
:101AB0006E0F02D0B9F14E0F1CD13B4601A8009524
:101AC00080E85002DDE912126FF0020004F0D5F850
:101AD000C11CCED10EE0B96912986D1C88478146B1
:101AE0001398761E44F4007405600F98401C002E75
:101AF0000F9016DDB9F1300FEDD0B9F1780F02D0AB
:101B0000B9F1580F0DD10F9801280AD13B46CDE904
:101B10000054DDE91212001F029604F0ACF8C11C5B
:101B2000A7D1109989453ED144F0800406E013996D
:101B3000681CAAF1010A44F400740860B9696D1CBC
:101B40001298761E884730288146F0D02BE01099F5
:101B5000894505D1200603D4761E44F0800418E0A0
:101B6000484602F00CFE08B3761E0DF123018B45AA
:101B700044F4007408D2A9F130000BF8010B2006E0
:101B800007D5AAF1010003E0200602D40AF1010002
:101B90008246A00502D51399681C0860B96912989D
:101BA0006D1C88478146002ED1DC53E0002E51DDAC
:101BB000B9F1650F02D0B9F1450F4BD1A00549D558
:101BC000B9696D1C1298761E24F440748847002E63
:101BD00081460CDD2B2804D0B9F12D0F07D144F438
:101BE0008074B96912986D1C8847761E8146E0059D
:101BF00001D52D2100E02B2108F8011BCDF8008034
:101C000021E0761E0DF13901884544F400740CD2B0
:101C1000A9F1300010F0FF0088F8000002D100990F
:101C2000884509D908F1010806E0E00501D51E48FC
:101C300001E042F20F708246B96912986D1C884724
:101C4000814613980560002E04DD484602F097FD9A
:101C50000028D6D1F96912988847FF2053468BF89F
:101C6000000088F8000000200A900B9004AA0CA93C
:101C70000AA8FFF7ADFDA00502D46FF00100F8E659
:101C800014F0240F12D0E0071CD13868DDE90A12E5
:101C9000031D3B600068C0E9001213E0904500009E
:101CA0008245000046440000F1D8FFFF0AA96846BB
:101CB00002F0F4FCE00705D13868009A011D396094
:101CC000006802602846D4E601491820ABBEFEE752
:101CD000260002002DE9FF4F1F464FF03C0987B058
:101CE0004FF00042DDE9141001F10108DDF858A0C1
:101CF00002EA4050039000200590834605460446C2
:101D00000490B969461E08988847AAF1010A029012
:101D1000BAF1000F3BDD02982E2815D01021FFF7F5
:101D2000ADFC00282EDB4FF0010B0599014317D0C5
:101D3000B9F1000F0BDB4A46C11700F0F6F9054375
:101D40000C43A9F1040905E0012004900BE008B15F
:101D500045F0010501200590049820B9361D02E0E8
:101D6000049800B1361FB969089808F1010888473E
:101D7000BBF1000FAAF1010A0290C9D00999C1F87C
:101D80000080C5E70298702808D0502806D0F9696D
:101D900008988847BBF1000F14D04FE00020029054
:101DA0000120BBF1000F049009D0B969089808F12F
:101DB00001088847AAF10109B9F1000F07DCF969A8
:101DC000089888476FF001000BB0BDE8F08F2B2812
:101DD00004D02D280CD14FF0FF300490B969089839
:101DE00008F101088847A9F10109B9F1000FE6DD02
:101DF000411CE4D00A21FFF741FC0028DFDB0299F7
:101E000008F1010801EB810100EB41000290B96982
:101E1000089888470A21FFF731FC099AA9F10109BE
:101E2000B9F1000FC2F8008001DD0028E7DAF96996
:101E3000089888470499029800FB016655EA040057
:101E400004D004F04041090002D006E0039898E075
:101E5000A40044EA9574AD00B61E04F000410800E9
:101E600002D16D196441761E159810F0240F03D02D
:101E70004FF00B095C4803E04FF028096FF07D003C
:101E80008246564507DAAAEB06018944B9F1410FAB
:101E900001DD4FF0410901200021A9F1010200F00C
:101EA00044F9024628400B462140084301D0012155
:101EB00000E00021501E029143F1FF3128402140F3
:101EC000084301D0012000E000200299834651EA36
:101ED0000B014FD0002108464FF00000039900F499
:101EE000400039B100EB80004FF4400100EBD070AE
:101EF00001EA60008015012802DD4FF0FF3000E0AC
:101F000013D0401C36D0029860B3BBF1000F0CD147
:101F10004A460120002100F008F9284021400843EA
:101F200001D0012000E00020E0B101204A4600215C
:101F300000F0FBF8034640190A4661412D1A8C4116
:101F400011D3B9F1400F09DD159810F0240F02D01C
:101F5000AAF1340603E0AAF1170600E0761C00257A
:101F60004FF0004406E05B1E42F1FF3220EA030519
:101F700021EA0204CAF10100B04206DA1B490398C3
:101F800008430190002000900EE0039AC4F3D3218F
:101F9000E80A0A43164940EA44500A433146CDE96B
:101FA0000002684602F0E0FB159810F0240F0BD0F9
:101FB0001598C00715D13868DDE90012031D3B6094
:101FC0000068C0E900120CE002A8694602F066FB56
:101FD0001598C00705D13868029A011D396000685C
:101FE00002604046F0E6000002FCFFFF0000F07FC8
:101FF0000000F03F2DE9FF4F92461D4685B04FF09F
:102000000041DDE9124BDDE914727F1E01EA4B50FD
:10201000414940F0FF4940EA0108002122F0200038
:102020004928049102D04E2828D04CE03BA001263C
:1020300007C88DE80700A9690698641C88477F1EB9
:10204000014606D41DF8060018B121F02001814296
:102050000BD0E96906988847032E34D0082E32D079
:102060006FF0010009B0BDE8F08F761C032E01D09F
:10207000082EE0D1601CCAF80000DCE7A9690698C8
:10208000641C88477F1E2AD420F02000412826D1D6
:10209000A9690698641C88477F1E20D420F0200080
:1020A0004E281CD1A9690698641C88477F1E48F4F5
:1020B000002849F48009CAF8004001D4282806D035
:1020C000E969069888475FEACB7012D022E0A969D7
:1020D0000698641C88477F1E01D4002803DAE9694A
:1020E00006988847BCE72928F1D1641CCAF800404B
:1020F000E9E71BF0240F07D028680499031D2B6023
:102100000068C0E9001805E02868021D2A60006820
:10211000C0F800902046A5E70000F07F494E4649F0
:102120004E495459000000007047B2F120030AD50F
:10213000C2F1200301FA02F120FA03F300FA02F0DF
:1021400041EA0301704700FA03F14FF000007047C5
:102150005FEA400C08BF91F0000F4FEA8C234FEA72
:10216000C12243EA51514FEA1C5018BF00F5F0401C
:102170004FEA300018BF41F000415FEA6C5C00F0AC
:102180002980BCF1FF3F08BF40F080407047130C2E
:1021900006BF12044FF0100C4FF0000C130E04BFDA
:1021A00012020CF1080C130F04BF12010CF1040C05
:1021B000930F04BF92000CF1020CD30F04BF520026
:1021C0000CF1010C11464FF00002A0F11F00A0EB32
:1021D0000C00704711F0004F08BF704731F000410C
:1021E0003FF4D5AF0B0C06BF09044FF0100C4FF0B5
:1021F000000C0B0E04BF09020CF1080C0B0F04BFFE
:1022000009010CF1040C8B0F04BF89000CF1020CC6
:10221000CB0F04BF49000CF1010CCCF12003A0EB63
:102220000C0022FA03F302FA0CF241EA030100F176
:102230000100704720F07F4C80EA030023F07F47C5
:10224000ACEB070303F57C5300F0004003F1FF0300
:102250002DE980494FEA154B09B44FEA144325EAAA
:102260000B4E24EA03480FF2042606EB1327490815
:102270003E785FEA320203FB0667C7F5000707FBFB
:1022800006F64FEA54374FEAD64606F1020607FB38
:10229000066CCCF1005C4FEA1C472CEA074C07FBAC
:1022A00006F40CFB06F504EB15464FEA961634BF10
:1022B00000204FF000404FEAD13706FB07FC4FEA01
:1022C0001C4C0CFB0BF7D21B03FB0CF761EB07015B
:1022D0000CFB0EF7B0EB074072EB17420CFB08F754
:1022E00034BFA2EB0742B2EB074261EB17414FEA62
:1022F0000C444FEA910706FB07FC4FEA1C4C0CFB11
:102300000BF7B0EBC74072EB573203FB0CF734BF4F
:10231000A2EBC742B2EBC74261EB57310CFB0EF7A1
:10232000B0EBC70072EB57720CFB08F734BFA2EB9F
:10233000C702B2EBC70261EB5771039F4FEA81619D
:1023400041EA921104EBCC044FEAD1374FEA8262A2
:1023500006FB07FC42EA90124FEA80604FEA1C4CF1
:102360000CFB0BF7D21B03FB0CF761EB07010CFB1B
:102370000EF7B0EB074072EB17420CFB08F734BFC7
:10238000A2EB0742B2EB074261EB17414FEA8C55D3
:102390004FEA910704EB9C2406FB07FC4FEA1C4C18
:1023A0000CFB0BF7B0EBC74072EB573203FB0CF79B
:1023B00034BFA2EBC742B2EBC74261EB57310CFB13
:1023C0000EF7B0EBC70072EB57720CFB08F734BF87
:1023D000A2EBC702B2EBC70261EB577115EB4C25BC
:1023E0004FEA816141EA92114FEA82624FEAD137A6
:1023F00042EA901206FB07FC44F100044FEA8060B9
:102400004FEA1C4C0CFB0BF7D21B03FB0CF761EBE8
:1024100007010CFB0EF7B0EB074072EB17420CFB09
:1024200008F734BFA2EB0742B2EB074261EB17415A
:1024300015EB1C154FEA813141EA92414FEA823295
:1024400042EA90424FEA80304FEA0C7644F10004B1
:1024500048EA03434EEA0B484FF0000EB2EB080C7B
:1024600071EB030724BF624639464EEB0E0E4FF068
:10247000000B0018524149414BEB0B0BB2EB080C1F
:1024800071EB03077BF1000B24BF624639464EEB2C
:102490000E0E4FF0000B0018524149414BEB0B0B55
:1024A000B2EB080C71EB03077BF1000B24BF624613
:1024B00039464EEB0E0E51EA020718BF46F00106F0
:1024C00016EB0E7655F1000254F1000103D5BDE87C
:1024D0008901BDE80088BDE88901BDE80048B6195A
:1024E000524141EB0101A3F10103704780807F7EDF
:1024F0007D7C7B7A7978777676757473727171707A
:102500006F6E6E6D6C6C6B6A6A696868676666652B
:102510006464636362616160605F5F5E5E5D5D5CB9
:102520005C5B5B5A5A59595858575756565555552A
:102530005454535352525251515050504F4F4F4E8A
:102540004E4D4D4D4C4C4C4B4B4B4A4A4A494949D8
:10255000484848474747474646464545454444441A
:1025600044434343434242424241414146EA0646D4
:10257000A3F570534FEA164646EA42564FEAD22276
:1025800042EA415210B54FEAD121A3F1010300F014
:102590002FF820F0004000F1020C00F0004701EBA2
:1025A00000501146BCF5006F40EA070000D210BD94
:1025B000BAF1000F0AD01CB503B44FF004004FF07D
:1025C00004014FF000000FBCBDE810404FF00001C7
:1025D000BBF1010FB9BF04484FF0FF3103480021A0
:1025E00040EA070010BD00BFFFFFEF7F0000F07F53
:1025F000002B9C4630D477002BD01CB54FEA370710
:1026000003B44FF010004FF01001BAF1000F06D0E4
:10261000BCF1000FDCBF40F0080040F008014FF0B3
:1026200000000FBCBDE810400BF1010BBBF1010F26
:1026300008BF5FEA170722BF12F1010211F1010181
:102640004FF0004143F1000300F0004043EA000076
:102650007047F9D35708D0E746EA064613F1400F12
:102660004FEA16461FDD13F1200FDFBF16430A465F
:10267000002120335B42BED0C3F1200746EA064664
:1026800002FA07F74FEA164646EA0706C3F12007A3
:1026900022FA03F201FA07F721FA03F14FF00003DF
:1026A00042EA0702A7E746EA020646EA06464FEA7A
:1026B000164646EA0106BCBF46EA0646360C4FF00F
:1026C00000034FF000024FF0000194E72DE9804C29
:1026D0009A46934670B491E8380007C831EA400C36
:1026E00048BF34EA430C03D5FFF7A4FDFFF780FF92
:1026F000F0BCBDE8008C2DE9804C9A46934670B43E
:1027000091E8380007C831EA400C48BF34EA430C6E
:1027100003D5FFF78FFDFFF729FFF0BCBDE8008C64
:102720002DE9804C9A46934670B491E8380007C86A
:1027300010F0804F08BF13F0804F03D100F01AF85B
:10274000FFF756FFF0BCBDE8008C2DE9804C9A469F
:10275000934670B491E8380007C810F0804F08BF66
:1027600013F0804F03D100F005F8FFF7FFFEF0BC37
:10277000BDE8008C20F07F4780EA030023F07F4C07
:1027800007EB0C03A3F57C5300F00040A3F1FE031C
:1027900092F0000F00F0B38095F0000F00F077800A
:1027A0002DE901494FEA11404FEA144621EA004859
:1027B00000FB06FC24EA064708FB06F607FB08F8C0
:1027C00000FB07F718EB06484CEB164C4FEA124B90
:1027D00018EB07484FEA15464CEB174022EA0B4E20
:1027E0000BFB06FC25EA06470EFB06F607FB0EFE72
:1027F0000BFB07F71EEB064E4CEB164C4FF000069A
:102800001EEB074E4CEB174B18EB0B0840F100008A
:1028100018EB0E0B58EB000840F100008F1A4FF038
:1028200000013CBFC943661B14BFB5EB040C00217B
:102830003CBFC943F61B4FEA17444EEA8E0E27EA07
:1028400004454FEA1C4704FB07622CEA074C05FBD2
:1028500007F70CFB05F604FB0CFC16EB074642EBF6
:10286000174216EB0C4642EB1C421BEB060658EBDC
:102870000202414146EA9E0601D5BDE80189B6192A
:10288000524141EB0101A3F10103BDE801894FEA87
:1028900014454FEA114724EA054621EA074C05FB97
:1028A00007F406FB07F70CFB06F105FB0CFC11EB2C
:1028B000074144EB17444FEA124711EB0C4144EB3C
:1028C0001C4422EA074C05FB07F206FB07F70CFB4A
:1028D00006F605FB0CFC16EB074642EB174216EB1F
:1028E0000C4642EB1C456A1854F1000148BF704782
:1028F000B619524141EB0101A3F10103704795F074
:10290000000F37D04FEA11424FEA144721EA02463E
:1029100024EA074C02FB07F106FB07F70CFB06F461
:1029200002FB0CFC14EB074441EB17414FEA15473F
:1029300014EB0C4441EB1C4125EA074C02FB07F564
:1029400006FB07F70CFB06F602FB0CFC16EB074632
:1029500045EB174516EB0C4645EB1C42121951F19D
:10296000000148BF7047B619524141EB0101A3F184
:10297000010370474FEA14454FEA114724EA054620
:1029800021EA074C05FB07F106FB07F70CFB06F2F3
:102990004FF0000605FB0CFC12EB074241EB174120
:1029A00012EB0C4251EB1C4148BF7047921841EBAF
:1029B0000101A3F101037047FEE700F0A3BF10B5CA
:1029C000036800225A624FF47A7303E00268546A83
:1029D0009C42FCD3491E89B2F8D210BD0368002284
:1029E0005A620068426A8A42FCD370470068FFF767
:1029F000E6BF0068FFF7F2BF1FB54FF40043054A7A
:102A00000549684600F00AF8684600F03BF804B053
:102A100010BD0000000C01407C01002030B4826039
:102A20008380016030BC0846FFF7C7BF2DE9F04145
:102A30000746002500F057F800240126384600F02C
:102A400061F80021384600F0C0F801213846FFF750
:102A5000D0FF384600F047F8384600F00FF818B1BC
:102A600006FA04F02843C5B232213846FFF7C1FF09
:102A7000641C082CE2DB2846BDE8F0818188806870
:102A800000F058BB70B5044600F04DF80121204617
:102A9000FFF7ACFFCC21204600F066F84421204629
:102AA00000F062F8C8212046FFF7A0FF204600F0A2
:102AB0003AF801212046FFF799FFCC21204600F08B
:102AC00053F8BE21204600F04FF82046FFF7AEFF36
:102AD00005462046FFF7AAFF45EA0020000903F05B
:102AE00003F8E06070BD1FB50021009101910291D3
:102AF000039181880091012102918068694600F06C
:102B000029FA1FBD1FB50021009101910291039187
:102B10008188009101210191022103918068694619
:102B200000F018FA1FBD70B505460024FFF7EAFF54
:102B30000021284600F049F84FF4F0712846FFF7CD
:102B400058FF2846FFF7CFFF50212846FFF751FFD7
:102B50002846FFF793FF00B901244FF4C8712846B7
:102B6000FFF747FF204670BD2DE9F0410E460746AE
:102B7000FFF7C8FF0024012505FA04F0304238466B
:102B800011D0FFF7BFFF0021384600F01EF80121E9
:102B90003846FFF72EFF3846FFF7A5FF32213846AB
:102BA000FFF727FF0CE0FFF7ADFF0021384600F0EC
:102BB0000CF832213846FFF71CFF3846FFF793FF29
:102BC000641C082CD8DBBDE8F08183880A46806845
:102BD000194600F0B4BA704706490020C86106489B
:102BE000016941F004010161016941F040010161A5
:102BF00070470000D802002000200240064A002151
:102C0000D16106490A6942F002020A614861086915
:102C100040F0400008617047D802002000200240C8
:102C2000044B0022DA61044A136943F00103136183
:102C300001807047D8020020002002401448002282
:102C4000C168CB06134904D5CA6942F00202CA61C1
:102C50001022C3685B0705D5CB6943F00103CB6144
:102C600042F00402C369DB0707D0CB6943F00403D9
:102C7000CB61C16921F00101C161A2F58071013907
:102C800001D0C2607047C16921F00101C161704784
:102C900000200240D802002070B5054600F054FA2A
:102CA0000646114C09E0681C07D025B100F04CFA2B
:102CB000801BA84201D9032070BDE068C007F2D193
:102CC000E068800601D52020E060E068C00605D4F9
:102CD000E069C00702D1E068400703D5FFF7AEFF07
:102CE000012070BD002070BD0020024010B590F89A
:102CF00021100022022905D00421816380F82020C0
:102D0000012010BD01680B6823F00E030B60016801
:102D10000B6823F001030B6090F84030C46B012175
:102D200001FA03F3636080F8211080F82020104638
:102D300010BD000010B590F821100024022903D026
:102D40000421816301243DE001680A6822F00E023B
:102D50000A6001680A6822F001020A601A4A0168E2
:102D6000914201D1012121E0174A1432914201D14F
:102D700010211BE0144A2832914201D1891515E037
:102D8000114A3C32914201D189140FE00E4A50326F
:102D9000914202D14FF4803108E00B4A64329142F3
:102DA00002D14FF4801101E04FF08071064A083AD9
:102DB0005160012180F82110002180F82010416B22
:102DC00001B18847204610BD0800024070B5044696
:102DD00000F0BAF90546601C02D0044800780444AB
:102DE00000F0B2F9401BA042FAD370BD10000020E1
:102DF0002DE9F047054626480F460126017E0129A8
:102E00000FD00121814601762868DFF888804CF2D6
:102E10005034022808D0A2462046FFF73DFFA8B153
:102E200031E00220BDE8F0872046FFF735FF08BB00
:102E30000120FFF7D1FE2046FFF72EFFD8F8101033
:102E4000064621F00401C8F810101CE04FF0FF30D6
:102E50003860AC6811E02046FFF7D0FE5046FFF71F
:102E60001BFFD8F81010060021F00201C8F810105E
:102E700001D03C6007E004F58064D5E9020100EB75
:102E80008120A042E7D8002189F818103046C9E710
:102E9000D8020020002002400348016941F080016F
:102EA0000161002070470000002002402DE9F05F22
:102EB00007461C4888460024017E15461E46012907
:102EC00009D00121814601764CF2503A5046FFF775
:102ED000E3FE18B122E00220BDE8F09F012F02D0EE
:102EE000022F00D00427D346DFF83CA02201284659
:102EF0003146FDF7BFF981B208EB4400FFF790FEC1
:102F00005846FFF7C9FEDAF8102022F00102CAF88D
:102F1000102018B9641CE4B2BC42E7D3002289F83F
:102F20001820D9E7D80200200020024006490020DE
:102F30000A69120607D5054A4A60054A4A600969C6
:102F4000090600D501207047002002402301674593
:102F5000AB89EFCD2DE9F84FDFF8B891002409F1E6
:102F6000040A0AF1040B23460F270BF1040EC9E0F3
:102F70000125A5402A40AA427DD1674ED1F804C060
:102F8000ACEB0608B44532D014DCBCF1030F3AD0E8
:102F900009DCBCF1000F2AD0BCF1010F1CD0BCF140
:102FA000020F31D11DE0BCF1110F17D0BCF1120F8F
:102FB0002AD119E0B8F5881F19D006DCB8F5803F92
:102FC00015D0B8F5801F1FD111E0B8F5001F0ED045
:102FD000B8F5041F18D10AE0CB6815E0CB681B1DBB
:102FE00012E0CB6808330FE0CB680C330CE08B6841
:102FF0002BB1012B4FF0080303D0456104E00423FB
:1030000002E0056100E00023FF2A01D8064601E046
:1030100000F104064FEA840501D9A5F12005D6F890
:10302000008007FA05FC28EA0C0803FA05F548EACF
:103030000508C6F800804D68ED0062D5374DAE69D1
:1030400046F00106AE61AD6924F0030605F0010506
:103050000095334D06EB050CDCF80850A607360F3B
:1030600007FA06F825EA0805DFF8B880404503D1DD
:103070004FF0000817E044E0DFF8AC80404502D193
:103080004FF001080FE0DFF8A480404502D14FF077
:10309000020808E0DFF89880404502D14FF00308AD
:1030A00001E04FF0040808FA06F848EA0508CCF8F1
:1030B00008804D68D9F80060ED034D4601D51643F0
:1030C00000E096432E604D68DAF80060AD03554687
:1030D00001D5164300E096432E604D68DBF8006092
:1030E000ED025D4601D5164300E096432E604D6823
:1030F000DEF80060AD02754601D5164300E0964348
:103100002E60641C0D682A46E5407FF431AFBDE8AF
:10311000F88F000000040140000011100010024070
:103120000000014000080140000C01400010014077
:10313000001401408068084000D0012070470AB1A7
:10314000016170470904FBE701488068704700008F
:1031500010000020024881680278114481607047A5
:1031600010000020074810B5016841F0100101600F
:10317000032000F0A1F80F2000F006F800F050F84E
:10318000002010BD0020024030B505461F4887B022
:10319000C16941F00401C161C06906A900F00400E1
:1031A000009001A800F030F90498B0B100F04CF99B
:1031B00040001749174AB0FBF1F11748491E026059
:1031C000416040F2E7320021C0E903218160816162
:1031D00000F056FB040003D015E000F035F9E8E7F5
:1031E0000D4800F0B7FB04000DD11E2000F036F8AA
:1031F000102D07D2002229461E2000F03DF8074876
:10320000056000E0012407B0204630BD00100240F8
:1032100040420F00000800409002002014000020EF
:103220000C4808B5816941F001018161816901F0B3
:1032300001010091C16941F08051C161C06900F094
:10324000805000900448416821F0E06141F0007135
:10325000416008BD0010024000000140002809DB69
:1032600000F01F02012191404009800000F1E020A0
:10327000C0F8001170470000F0B40E4B1B680C46FC
:10328000C3F30223C3F10705042D00D90425191D3A
:10329000072901D2002300E0DB1E012606FA05F112
:1032A000491E214099409E40761E16403143F0BC95
:1032B00001F0D5B90CED00E0064900F007020868FE
:1032C0004FF6FF03184040EA0220034A104308600B
:1032D000704700000CED00E00000FA052DE9F04712
:1032E0000F46050061D0434E306800F00700B84239
:1032F00009D2306820F0070038433060306800F0B1
:103300000700B84251D128683B4C810712D54007CD
:1033100003D5606840F4E06060602878000703D55A
:10332000606840F4605060606068A96820F0F00058
:10333000084360602878C00728D06868012810D04A
:103340002168022810D0890700292EDA616821F04F
:10335000030101436160FFF7F7FE804641F28839BF
:103360000DE021688903EFE78901EDE7FFF7ECFE47
:10337000A0EB0801494502D90320BDE8F087606849
:10338000696800F00C00B0EB810FEFD1306800F0FD
:103390000700B8420BD9306820F00700384330608E
:1033A000306800F00700B84201D00120E5E7287836
:1033B000400705D56068E96820F4E0600843606074
:1033C0002878000706D56068296920F4605040EA33
:1033D000C100606000F058F86168084AC1F3031149
:1033E000515CC8400649086006480068FFF7CCFEFB
:1033F0000020C2E70020024000100240AE5C00083E
:103400001C000020140000200F2202600C4A5368A8
:1034100003F003034360536803F0F00383605368D1
:1034200003F4E063C36052684FF4E06303EAD2023E
:1034300002610448006800F007000860704700005F
:103440000010024000200240044805490068496815
:10345000044AC1F30221515CC84070471C0000209F
:1034600000100240BE5C0008044805490068496835
:10347000044AC1F3C221515CC84070471C000020BF
:1034800000100240BE5C000812A185B00FC98DE893
:103490000F0014A0144A006804905168134801F00A
:1034A0000C03042B10D0082B0ED1C1F38343C903A6
:1034B0001DF803000AD5516804AAC1F34041515CCC
:1034C0000A4A5043B0FBF1F005B070470849484341
:1034D000FAE7000002030405060708090A0B0C0DB1
:1034E0000E0F1010010200000010024000127A00BE
:1034F00000093D002DE9F84F040070D02078C04D40
:10350000C00749D06868C0F38100012807D0686807
:10351000C0F38100022809D16868C00306D5286875
:10352000800339D560680028E7D035E06068B0F5E1
:10353000803F0BD010B1B0F5A02F11D0286820F437
:1035400080302860286820F4802002E0286840F459
:1035500080302860606890B1FFF7F6FD06460AE00B
:10356000286840F480202860F0E700BFFFF7ECFDFA
:10357000801B642873D828688003F7D50CE0FFF718
:10358000E3FD064605E000BFFFF7DEFD801B642873
:10359000F0D828688003F7D420789A4E80074FF03F
:1035A00001094FF0000839D5686810F00C0F07D0FA
:1035B0006868C0F38100022809D16868C00306D496
:1035C0002868800714D52069012808D110E02069F7
:1035D000B0B1C6F80090FFF7B7FD074605E00AE175
:1035E000FFF7B2FDC01B0228C4D828688007F7D5B2
:1035F0002868616920F0F80040EAC10028600DE009
:10360000C6F80080FFF7A0FD074604E0FFF79CFD29
:10361000C01B022823D828688007F7D42078000729
:103620002CD57948A169D9B1C0F80090FFF78CFD7D
:10363000074604E0FFF788FDC01B02280FD8686A20
:103640008007F7D571484FF4FA510068B0FBF1F0EC
:10365000009000BF0098411E0091FAD20EE080E079
:10366000C0F80080FFF770FD074604E0FFF76CFD2F
:10367000C01B022875D8686A8007F7D420784007F5
:1036800060D5E8690027C00008D4E86940F08050A0
:10369000E861E869012700F0805000905C4801680B
:1036A000C90513D40168834641F480710160FFF7B6
:1036B0004BFD824606E000BFFFF746FDA0EB0A0087
:1036C00064284ED8DBF80000C005F5D5E068012875
:1036D0000AD008B1052813D0286A20F0010028621A
:1036E000286A20F0040002E0286A40F00100286205
:1036F000E06841F2883B98B1FFF726FD82460BE077
:10370000286A40F004002862EEE700BFFFF71CFDC6
:10371000A0EB0A0159455AD8286A8007F6D50CE073
:10372000FFF712FD824605E0FFF70EFDA0EB0A0150
:1037300059454CD8286A8007F6D41FB1E86920F0B3
:103740008050E861E06988B36968C1F381010229AA
:1037500044D00228C6F8608004D0FFF7F5FC044688
:1037600038E034E0FFF7F0FC074604E0FFF7ECFC3C
:10377000C01B02282BD828688001F7D4206AB0F536
:10378000803F05D16868A16820F400300843686074
:10379000D4E908010843696821F47411084368609A
:1037A000C6F86090FFF7D0FC044606E025E000BFB5
:1037B000FFF7CAFC001B022809D828688001F7D54A
:1037C0001BE000BFFFF7C0FC001B022802D903204A
:1037D000BDE8F88F28688001F4D40EE00128F7D006
:1037E0006868226A00F48031914204D1616A00F471
:1037F0007010884201D00120EAE70020E8E70000CD
:103800000010024000004242800442421C0000209E
:10381000007000407047704770B590F83C20012A56
:1038200026D0012480F83C40022280F83D20036825
:103830005A689D6822F070060A6832435A600D4B40
:1038400002689A4208D0B2F1804F05D00A4B9A42E2
:1038500002D00A4B9A4204D1496825F080031943EB
:10386000916080F83D40002180F83C10084670BD12
:10387000022070BD002C0140000400400008004000
:1038800010B5040003D094F83D0010B107E001200A
:1038900010BD002084F83C00204600F01FF80220F4
:1038A00084F83D00211D206800F022FD012084F8ED
:1038B000460084F83E0084F83F0084F8400084F815
:1038C000410084F8420084F8430084F8440084F8FE
:1038D000450084F83D00002010BD000008B50068D8
:1038E0000649884208D10648816941F40061816136
:1038F000806900F40060009008BD0000002C0140C9
:103900000010024090F83D10012901D001207047BD
:10391000022180F83D1000680B49884208D0B0F1C0
:10392000804F05D00949884202D00949884204D114
:10393000816801F00701062903D0016841F0010107
:103940000160002070470000002C0140000400408E
:103950000008004090F83D10012901D00120704777
:10396000022180F83D100168CA6842F00102CA6075
:1039700000680B49884208D0B0F1804F05D0094952
:10398000884202D00849884204D1816801F00701C9
:10399000062903D0016841F0010101600020704751
:1039A000002C0140000400400008004070B50446AF
:1039B00090F83C00012817D0012584F83C500220E3
:1039C00084F83D002068826822F0770222F47F426A
:1039D00082600868502830D00DDC20284DD005DCEE
:1039E00098B310283BD148E0022070BD302844D065
:1039F000402834D139E0602828D0702806D0B0F5AE
:103A0000805F2CD0B0F5005F29D10AE0CB68D1E906
:103A10000121206800F0A2FC2068816841F0770154
:103A200009E0CB68D1E90121206800F097FC20680B
:103A3000816841F48041816011E0CA68496820686A
:103A400000F09EFC5021206807E016E0CA68496833
:103A5000206800F0A6FC6021206800F089FC84F852
:103A60003D50002084F83C0070BDCA684968206859
:103A700000F086FC40212068EFE7226801461046EE
:103A8000EBE7704770B50446006801694FF0000528
:103A9000C943890715D4C168C943890711D4E91EF0
:103AA000016101202077206880698007204602D0CC
:103AB000FFF7E7FF04E000F098F8204600F096F8E2
:103AC000257720680169C943490717D4C168C943EC
:103AD000490713D46FF004010161022020772068A8
:103AE000806910F4407F204602D0FFF7CAFF04E04F
:103AF00000F07BF8204600F079F82577206801690E
:103B0000C943090716D4C168C943090712D46FF025
:103B100008010161042020772068C06980072046E1
:103B200002D0FFF7AEFF04E000F05FF8204600F09F
:103B30005DF8257720680169C943C90617D4C168B3
:103B4000C943C90613D46FF0100101610820207722
:103B50002068C06910F4407F204602D0FFF791FF33
:103B600004E000F042F8204600F040F82577206895
:103B70000169C943C90708D1C168C943C90704D14C
:103B8000891E0161204600F033F820680169C943AD
:103B9000090609D4C168C943090605D46FF080013C
:103BA00001612046FFF736FE20680169C9434906D6
:103BB00009D4C168C943490605D46FF040010161C9
:103BC000204600F01FF820680169C94389060BD41C
:103BD000C168C943890607D46FF0200101612046FE
:103BE000BDE87040FFF717BE70BD7047704700001A
:103BF00000680349884201D1FFF7ACBA7047000062
:103C0000000800407047704770470000F8B5026830
:103C100004461068D168536910F00F0F4FF000058B
:103C200053D003F0010601F4907737435FD0C20709
:103C300005D0CA0503D5226C42F001022264420776
:103C400005D5DA0703D0226C42F002022264820713
:103C500005D5DA0703D0226C42F004022264020781
:103C600007D501F02002324303D0226C42F0080253
:103C70002264226C002A34D0800604D5880602D53E
:103C8000204600F0C0FB20684069216CC0F3801022
:103C9000090700D430B3204600F09DFB206841693D
:103CA00049061BD5416921F040014161A06BA8B1D3
:103CB00058494163A06BFFF73DF8002811D0A06B75
:103CC000416B01B0BDE8F040084783060FD58B0675
:103CD0000DD52046BDE8F84000F095BB2046FFF723
:103CE00093FFF8BD2046FFF78FFF2564F8BD266BD4
:103CF0002023012E52D1C60650D5CE064ED51068CF
:103D000050680090506940062AD5A16B0868406849
:103D10000004000CEAD0A68D8642E7D9E0858869C8
:103D2000202818D0D06820F48070D06020684169C5
:103D300021F0010141612068416921F040014161A8
:103D400084F83E3025632068C16821F01001C1600D
:103D5000A06BFEF7CBFFA08DE18D401A81B219E078
:103D6000A08DE18D401A81B2E08D0028BED00029DF
:103D7000BCD0D06820F49070D0602068426922F0F6
:103D80000102426184F83E3025632068C26822F057
:103D90001002C2602046FFF736FFF8BD05062BD59E
:103DA0000D0629D594F83D002128F6D1A068B0F57C
:103DB000805F01D12069B0B1206A411C2162216875
:103DC00000784860E08C401E0004000CE084E4D1E0
:103DD0002068C16821F08001C1602068C16841F09D
:103DE0004001C160F8BD206A0088C0F3080050603F
:103DF000206A801C2062E5E74006F3D54806F1D52D
:103E0000D168204621F04001D16084F83D3000F0B7
:103E1000C4F9F8BDC743000870B5040004D094F895
:103E20003D00002510B106E0012070BD84F83C5033
:103E3000204600F023F8242084F83D002068C16863
:103E400021F40051C160204600F038FB2068016970
:103E500021F4904101612068416921F02A0141610A
:103E60002068C16841F40051C1602564202084F8B5
:103E70003D0084F83E00002070BD0000F0B585B024
:103E8000002400940194029403940368424F02209A
:103E900042490322424D4602BB4225D18B6943F47D
:103EA00080438B618B6903F4804304938B6943F0F7
:103EB00004038B618969039201F0040104910102FA
:103EC000CDE9001069462846FFF744F8CDE90064C3
:103ED000694628460294FFF73DF800221146252046
:103EE000FFF7CAF9252028E02E4FBB4229D1CB6924
:103EF00043F40033CB61CB6903F4003304938B6943
:103F000043F004038B618969039201F00401049179
:103F10000421CDE9001069462846FFF71BF8082068
:103F2000CDE90004694628460294FFF713F8002201
:103F300011462620FFF7A0F92620FFF78FF905B0DC
:103F4000F0BD194DAB42FAD1CB6943F48023CB616C
:103F5000CB6903F4802304938B6943F008038B61DE
:103F60008969124D01F00801CDE90321CDE9006016
:103F700069462846FEF7EEFFE814CDE900046946DD
:103F800028460294FEF7E6FF002211462720FFF79D
:103F900073F92720D1E700000038014000100240EB
:103FA000000801400044004000480040000C01406F
:103FB0002DE9F84F044690F83E009A4616460D4605
:103FC000202853D1FDB1F6B194F83C0001284DD022
:103FD000012084F83C0000272764222084F83E005A
:103FE0002763FFF7B1F8A6858146E685A0684FF400
:103FF0008058404501D1206940B12E465FF0000550
:1040000084F83C7027E00120BDE8F88F0026F7E730
:104010004B46002220212046CDF800A000F0C5FA32
:1040200008B10320F0E726B1A06840451BD038B1A5
:1040300008E020684068C0F3080025F8020B07E09C
:10404000206980B12068406800F07F0006F8010B0D
:10405000E08D401EE085E08D0028D9D1202084F835
:104060003E000020D0E720684068EFE70220CBE761
:1040700090F83E30202B0ED159B152B190F83C301F
:10408000012B08D0012380F83C300023036300F0AB
:1040900071BA0120704702207047000070B51049C6
:1040A0000446006809680F4D884207D1287800F05F
:1040B00009FE012229460A48FFF7DAFF084920686D
:1040C0004439096888420AD1287800F0FBFDBDE830
:1040D00070400348012203494438FFF7C9BF70BD4F
:1040E00008020020000000202DE9F843044690F863
:1040F0003D001F4616460D4620284CD1C5B1BEB125
:1041000094F83C00012846D0012084F83C004FF090
:104110000008C4F84080212084F83D00FFF714F81F
:10412000A6848146E684A068B0F5805F03D004E0F1
:104130000120BDE8F883206928B12E465FF0000514
:1041400084F83C800EE00026FAE78021204600F04B
:104150002CFAA0B9AEB116F8010B21684860E08CCA
:10416000401EE084E08C4B464FF000020097002890
:10417000EBD14FF04001204600F017FA30B1032098
:10418000D7E735F8020BC0F30800E6E7202084F8F3
:104190003D000020CDE70220CBE77047FEE700009E
:1041A00070B586B0002418480094019402940394DA
:1041B000816941F020018161816901F02001049150
:1041C000816941F004018161816901F00401049178
:1041D000816941F00801816180690C4E00F008009E
:1041E0004FF400450490002229463046FEF7A7FF11
:1041F00001200095CDE90104022003906946304674
:10420000FEF7A8FE06B070BD00100240000C014091
:1042100010B586B0002417480094019402940394CA
:1042200004941349059401604721C0E901144FF635
:10423000FF71C0E9031444618461FFF721FB08B1F9
:1042400072B6FEE74FF48050009069460948FFF7C8
:10425000ADFB08B172B6FEE7049404A905480594C5
:10426000FFF7DAFA002801D072B6FEE706B010BDFB
:10427000002C01407C010020FEE7FEE770477047FC
:10428000704730B58FB028216846FCF75EF81421DE
:104290000AA8FCF75AF801210804CDE9001000240F
:1042A000029402250491CDE907504FF4E0100990E3
:1042B0006846FFF71FF908B172B6FEE70F20CDE997
:1042C0000A054FF48060CDE90C4002210AA80E9443
:1042D000FFF704F8002801D072B6FEE70FB030BD3A
:1042E000704700000148FFF7CDBB0000900200209E
:1042F000F0B50268164B174C174D4FF080479842A7
:1043000005D0B84203D0A04201D0A84203D122F088
:1043100070064A683243984205D0B84203D0A042A2
:1043200001D0A84203D122F44074CA6822434C69E8
:1043300022F08002224302608A68C2620A688262B6
:10434000984201D10969016301214161F0BD00007A
:10435000002C0140000400400008004010B58468B3
:1043600042EA032224F47F440A432243826010BDC0
:10437000826822F070020A4342F0070181607047B0
:1043800010B5036A046A24F001040462846924F00D
:10439000F00444EA021423F00A020A438461026230
:1043A00010BD10B5036A23F0100303628369046A29
:1043B00023F4704343EA023224F0A00343EA0111DC
:1043C0008261016210BD10B5406A0021C185C184BF
:1043D000FFF71AFC10BD0168CA6822F49072CA6027
:1043E00001684A6922F001024A61016B012904D186
:1043F0000168CA6822F01002CA60202180F83E10CD
:1044000000210163704708B590F83E10222901D0C1
:10441000022008BD82684FF480539A4201D101699D
:1044200021B1816A9A421BD04AB10AE00268816ACE
:104430005268C2F308020A80816A891C08E0026996
:1044400072B10268526802F07F020A70816A491CE8
:104450008162C18D491E0904090CC18503D019E090
:1044600002685268F1E70168CA6822F02002CA6057
:104470000168CA6822F48072CA6001684A6922F041
:1044800001024A61202180F83E10016B012903D00E
:10449000FFF704FE002008BD002101630168CA681F
:1044A00022F01002CA6001680A68D20602D50A68C2
:1044B00049680091818DFFF7A6FBEBE770B50446D4
:1044C00000680169E26821F44051114301612169EA
:1044D000A0680843616908432168CA6841F20C6317
:1044E0009A430243CA6020684169A26921F440717D
:1044F000114341611E492068884202D1FEF7B4FF92
:1045000001E0FEF7A1FF00EBC00101EB00126068C3
:1045100064218000B2FBF0F3B3FBF1F36FF01806F7
:104520007343B2FBF0F5B2FBF0F605EB83053223E3
:1045300003EB0515B5FBF1F5B6FBF1F605F0F0055B
:1045400005EB0615B2FBF0F6B2FBF0F0B0FBF1F0B4
:104550006FF01802504306EB800003EB0010B0FB35
:10456000F1F0216800F00F002844886070BD000061
:104570000038014081628285C285002101642222C7
:1045800080F83E2080F83C100168CA6842F48072CE
:10459000CA6001684A6942F001024A610068C16864
:1045A00041F02001C160002070472DE9F04198469C
:1045B00017460E460446069D1DE0681C1BD02DB113
:1045C000FEF7C2FDA0EB0800A84214D92068C1681C
:1045D00021F4D071C1602068416921F0010141617D
:1045E000202084F83D0084F83E00002084F83C0040
:1045F0000320BDE8F0812068006836EA000004D09E
:104600000020B842D9D00020F3E70120F9E70000EC
:104610000148FFF7FBBA0000C40100200148FFF782
:10462000F5BA0000080200200148FFF7EFBA0000C9
:104630004C020020FEE7490050EAC12018BF0420C8
:104640004A0D18BF40F0010040F2FF72B2EB515F1B
:1046500008BF40F00200012808BF05207047090785
:10466000090E002804DB00F1E02080F800147047F8
:1046700000F00F0000F1E02080F8141D704740F2B8
:10468000013200204FF0E04101F0C5BA024A00209B
:10469000110701F0C0BA000001FDFFFF10B504468C
:1046A000D1E9000100F002F8206010BDF8B5044621
:1046B0000D466A4600F0F0F800987E300090002821
:1046C0001EDC002213462046294600F06DFE17D05E
:1046D000002140F608004FF000000646204629461B
:1046E00000F01CFC044640F6080006EA00014FF00A
:1046F000000034F0004004BF0220FCF770FF29E006
:104700000098FF2828DB002108464FF0000000F445
:104710004006002213462046294600F0BBFF8CBF0E
:10472000002501250220FCF75AFF4FF0FF4446B157
:10473000002D0CBF4FF400004FF48000B04218BFB2
:10474000084C042108464FF00000002D04BF84F0FF
:104750000040F8BD2046F8BD20462946BDE8F84097
:1047600000F0DCBBFFFF7F7F10B504460A46D4E9AA
:104770000003194600F0FEF8C4E9000110BD30380E
:104780000A2801D2012070470020704730B595B04B
:10479000002413A1FBF7A2FD6D4607E045F82400B5
:1047A0000FA10020FBF79AFD641CE4B20028F5D1AC
:1047B000009800F029F828B1026821466846904721
:1047C00015B030BD07A000F09FFA0CA000F09CFAD5
:1047D000009800F099FA0BA000F096FAF0E70000BC
:1047E000200000006E6F742066696E642074686932
:1047F0007320636F6D6D616E642000002F2F2F2F6B
:10480000000000002F2F2F0070B50546064C05E074
:1048100029462068FBF7ECFD20B1083460680028C9
:10482000F6D170BD606870BD2000002030B5002357
:1048300006E0C458CC54240ACD189B1C6C70DBB223
:104840009342F6D330BD2DE9F04115460E4607469A
:10485000FEF76CFB384600F011F8002408E0301930
:10486000391902880120D30FFEF720FBA41CE4B203
:10487000AC42F4D3BDE8F041FEF70EBB00B585B005
:104880000121CDE902010020009004A96846FEF74D
:10489000AFFA05B000BD000010B51446002222603A
:1048A000114A21F000439342A8BF10BD53EA000211
:1048B00008BF10BDB3F5801FA8BF226807DA3622F3
:1048C00001F0A9F96FF0350221F000432260DFF812
:1048D0001CC06FF31E510CEB23531A4441F0FF51DF
:1048E00041F00051226010BD0000F07F02FCFFFF8C
:1048F00010B50446022901D20DA001E002D912A090
:1049000000F002FA6068FBF7DBFCC4B22046FEF759
:1049100073F800F0DFFF02460B4611A000F0F4F937
:104920002046FEF769F8BDE8104001F0C1B800006C
:104930006E6F7420656E6F75676820417272617961
:104940002C6172673D256400746F6F206D7563681C
:104950002041727261792C6172673D25640000000C
:104960000A2054454D5045524154555245203D254D
:10497000660000002DE9F04106460C4640F2FF7546
:10498000174635EA14502BD000221346304600F06B
:104990000BFD25D03A463046214601F03CF906464B
:1049A0000C4635EA145010D000221346304600F071
:1049B000FBFC15D10220FCF712FEFFF767FE0A464A
:1049C000214662F31E01BDE8F0810220FCF707FEDC
:1049D000FFF755FE0A46214662F31E01BDE8F0814D
:1049E00030462146BDE8F081FEF7BCFBFFF749FCED
:1049F000FFF7D6FB314830494FF4165600240160CA
:104A0000C0E901640C25C460C0E904458461C46147
:104A1000FFF702FA08B172B6FEE7FFF7F9FB274885
:104A2000274944300160C0E90164C460C0E904451D
:104A30008461C461FFF7F0F908B172B6FEE71F4860
:104A4000204988300160C0E90164C460C0E90445C0
:104A50008461C461FFF7E0F908B172B6FEE7174858
:104A6000883000F045F91548443000F047F9134804
:104A7000012215498830FFF7FBFA1048012212493C
:104A80004430FFF7F5FA104D4FF480764FF4FA7486
:104A900000F006FA31460D4800F00AF90A4B0B48BF
:104AA0001B1D1A1DE96800F05DF800F0CFF92046E3
:104AB000FEF78CF9ECE7000000380140C40100204B
:104AC0000044004000480040000000207C0000201E
:104AD000002814BF4FF0010C4FF0000C4CEA4103CA
:104AE00013F5001F84BFC2E900017047F0B4C1F3A1
:104AF0000A53A3F2FF344FF0000C01F00043142CD2
:104B000015DA002CBEBFC2E900C3F0BC7047144DDB
:104B100025FA04F401EA040656EA000510D021EA59
:104B20000403C2E900C3F0BC624600F0E9BD332CC7
:104B300006DC4FF0FF35143C25FA04F4204205D181
:104B4000C2E90001F0BC19466046704720EA040340
:104B5000C2E90031F0BC1A460B4600F0D1BD00009E
:104B6000FFFF0F002DE9F04186B01C4615460746B1
:104B700041A1FBF7B9FB06463FA13846FBF7B4FB62
:104B80000022002E74D0002872D0009200F11E077F
:104B90000192029203920492059206F111010B22F6
:104BA0006846FBF7F9FB0B22394603A8FBF7F4FB39
:104BB0000021684600F040F92860002103A800F0B9
:104BC0003BF92F4E20603146286800F0AFFE286088
:104BD0003146206800F0AAFE2060286800F07AFEC6
:104BE000284AFFF775FF284F264E00223B4600F06B
:104BF00053FCDFF898800022434600F07DFAC6E9B6
:104C00000401206800F066FE06F10802FFF760FF6D
:104C100000223B4600F040FC0022434600F06CFAC4
:104C2000C6E90601D6E90001D6E9042300F0A8F997
:104C300000F074F92860D6E90201D6E9062300F0F5
:104C40009FF900F06BF92060286800F043FE0246EF
:104C50000B460FA000F058F8206800F03BFE02461B
:104C60000B460FA000F050F806B0BDE8F081FFE75A
:104C70002A6000202260F7E72447504747412C0074
:104C80000000C842580000200000594000004E407B
:104C90006C617469747564653A202537660000009C
:104CA0006C6F6E677469747564653A2025376600A9
:104CB0008AB201464FF0FF330148FFF779B900008F
:104CC000C4010020094910B50A78074C531CDBB217
:104CD0003F2802D0A0540B7010BD0020A0540B70D0
:104CE0000120487010BD0000F80200205000002094
:104CF00001490860704700004000002001494860F9
:104D000070470000400000200FB400B599B01BAA06
:104D100068461A99FBF7C2FA6846FBF7F7FA82B2BF
:104D20000448642369464068FFF7DEF919B05DF86E
:104D300014FB00004000002038B50446022901D2CF
:104D40000AA001E002D90FA0FFF7DEFF6068FBF7C1
:104D5000B7FA0146009011A0FFF7D6FF042269467A
:104D60001448FFF770FD009838BD00006E6F742086
:104D7000656E6F7567682041727261792C61726728
:104D80003D256400746F6F206D75636820417272F9
:104D900061792C6172673D25640000000A2054454A
:104DA0004D5045524154555245204D41582069734C
:104DB0002025640000FC010838B50446022901D210
:104DC0000AA001E002D90FA0FFF79EFF6068FBF781
:104DD00077FA0146009011A0FFF796FF042269467A
:104DE0001448FFF730FD009838BD00006E6F742046
:104DF000656E6F7567682041727261792C617267A8
:104E00003D256400746F6F206D7563682041727278
:104E100061792C6172673D25640000000A205445C9
:104E20004D504552415455524520696E20697320BA
:104E30002564000000F8010808B50A460021009129
:104E400001466846FBF7CEFD009808BD10B5042268
:104E50000C490D48FFF7EAFC0A490422091D0B48DA
:104E6000FFF7E4FC0120FDF7C7FD00F021FE01463D
:104E700007A0FFF749FFBDE810404FF47A70FDF737
:104E8000A5BF00004800002000FC010800F8010850
:104E900074656D706E6F77202564202E0000000011
:104EA00010B5064C6078002806D021780448FFF73A
:104EB0006DFC00202070607010BD000050000020CC
:104EC000F802002010B500290AD00878002807D081
:104ED00005487844FBF78CFA002801D0002010BD6B
:104EE0000248784410BD00008A0F0000820F0000C5
:104EF00010B500290AD00878002807D00548784462
:104F0000FBF776FA002801D0002010BD0248784453
:104F100010BD00006E1000006610000021F000427D
:104F2000A2F16052B2F5801F01F0004328BFD2F118
:104F30007F6C0BD95FEA001C43EAC20242EB50705F
:104F400018BF704728BF20F001007047B2F5801FDE
:104F5000BCBF184670474FEA410C1CF5001F02D237
:104F6000084600F01ABE70B500F040FB0000008952
:104F7000FFF7F6BF4FF00040A0F58000704700003B
:104F800010B591EA030F48BF83F0004300F1C083DE
:104F9000841A71EB030C05D2121943EB0C03001BAE
:104FA00061EB0C01DFF824E14FEA1154A4EB135C30
:104FB0001EEA430F18BF9EEA445F73D023EA0E0334
:104FC000DCF1200E21EA045143F4801332D322FA9B
:104FD0000CFE10EB0E0023FA0CFE41EB0E01CCF19F
:104FE000200E03FA0EFE10EB0E0051F10001B1F598
:104FF000801FCCF1200E32D201EB045112FA0EF2D6
:10500000BDE8104058BF7047401C38BF5FEA4202FD
:1050100018BF7047002814BF20F0010041F10001C3
:105020004FEA410313F5001F38BF7047A1F1C0419B
:1050300000F02ABB012A43EB0302ACF1200CDCF1A7
:105040001F0E32BF4FF0000E23FA0CF310EB0300DB
:1050500041EB0451B4EB115FD0D0A1EB045101F549
:10506000801149085FEA300001EB04510ED350F182
:10507000000038BF12FA0EFE08D1BDE81040C9E7A3
:10508000401C38BF5FEA4202CAD1C3E7BDE8104006
:105090004FEA410313F5001F38BF7047A1F1C0412B
:1050A00000F0F2BA9EEA445F08D011EA5E0FBDE854
:1050B000104004BF01F0004100207047BDE81040DF
:1050C00070B500F093FA00BF64FBBE3E0000E0FF45
:1050D00002494FF0000000F06CBD00BF0000F87FF7
:1050E000491058BFC1F140415B1058BFC3F1404364
:1050F0008B42EFF3008070472DE9C04130B4DFF8F8
:10510000A0C23CEA111418BF3CEA131400F0EC8072
:1051100081EA03051CEA111444EAD57418BF1CEA9D
:10512000131500F0C780A4EB05044FF0004545EAD5
:10513000C12145EAC32341EA505143EA525304F1E5
:105140007F74994204F500344FEAC0204FEAC2222E
:1051500008BF904200F09C804FEA13650FF24016A2
:10516000765D4FEA134506FB05F7C7F1807706FB2E
:1051700007F74FEAD737A7FB03687642C8F58038B0
:10518000A7FB06CE38BFA8F1010807FB08E64FF0E1
:10519000000EA6FB028CE6FB03CEDCF1000CCEF188
:1051A000004E38BFAEF1010EA6FB0C584FF00007C1
:1051B0004FF00005E6FB0E87A1FB08C6A0FB07CE5B
:1051C00016EB0E0645F10005E1FB076515F1E04E13
:1051D0007EBFA4F580345FEA46066D4116F1800774
:1051E00045F100054FEA17274FEA066647EA0567CB
:1051F000A6F1DE46B6F1805F4FEA15251FD9384685
:1052000024F0010C05EBC471BCF1FE6F01EB0C1135
:1052100002D8F0BCBDE8008124425CBF01F5801ECD
:105220009EEAC47F02D4F0BCBDE80081244238D499
:10523000F0BCA1F1C041BDE8004100F025BA4FEA41
:10524000D22242EA43524FEAD323A7FB02864FEA17
:10525000D02040EA415007FB03661EEA0E0F4FEADA
:10526000D12105FB026658BFA6EB0056B6EB0056EF
:105270004FEA520E4EEAC37E18EB0E0E56EB530E5B
:10528000BDD518EB02085E417F1C55F10005B6E75D
:105290004FF480154FF000074FF000064FF0000864
:1052A000ADE7F0BC4FF0000001F1C04101F000415A
:1052B000BDE8008111EA0C1F0CEA131500D00CE0C8
:1052C00013EA0C1F00F025804FF00000F0BC81EACB
:1052D000030101F00041BDE80081F0BCBDE80041E0
:1052E00081EA030100F0D0B9F0BCBDE8004170B51F
:1052F00000F07CF9097EFC3E00F007B881EA03016A
:105300004FF0000001F00041704781EA030100F016
:10531000BBB9F0BCBDE800414FF000002149704727
:10532000FFFDFBF9F7F5F4F2F0EEEDEBE9E8E6E46A
:10533000E3E1E0DEDDDBDAD8D7D5D4D3D1D0CFCDF1
:10534000CCCBCAC8C7C6C5C4C2C1C0BFBEBDBCBB2A
:10535000BAB9B8B7B6B5B4B3B2B1B0AFAEADACAB25
:10536000AAA9A8A8A7A6A5A4A3A3A2A1A09F9F9EFF
:105370009D9C9C9B9A9999989797969595949393B1
:10538000929191908F8F8E8E8D8C8C8B8B8A898948
:1053900088888787868585848483838282818180CB
:1053A0000000FF070000F87F51EA030C17D41CF53A
:1053B000801F58BFBCF5801F00F10680994218BFBE
:1053C000704708BF9042704707D711F5801F58BF3C
:1053D00013F5801F19D499427047894270471CF514
:1053E000801F08D5BCF5801FF7D58B4218BF7047CA
:1053F00008BF824270474FF4001C1CEB410F38BFBE
:105400001CEB430F01D28B42704770B500F0EEF8F1
:10541000922449004FF000514FF08053FFF760BED7
:1054200051EA030C17D41CF5801F58BFBCF5801F30
:1054300000F10680994218BF704708BF904270473C
:1054400007D711F5801F58BF13F5801F19D4994253
:105450007047894270471CF5801F08D5BCF5801F36
:10546000F7D58B4218BF704708BF824270474FF490
:10547000001C1CEB410F38BF1CEB430F01D28B42C9
:10548000704770B500F0B2F8922449004FF0005117
:105490004FF08053FFF724BEDFF848C170B51CEA17
:1054A000111E1EBF1CEA13159EEA0C0F95EA0C0F85
:1054B00000F06F8081EA030423EA4C134EEAD47EA5
:1054C00021EA4C1141F4801143F48013AE44A1FB56
:1054D000024CA0FB0365AEF17F7E361955EB0C053F
:1054E000A1FB034C4CF10003A0FB021C16EB0C06C5
:1054F000654153F10003094218BF46F0010613F459
:10550000007F0BD14FEA03314FEA0530340341EA03
:10551000155140EA16506FF003020AE04FEAC3212A
:105520004FEAC520F40241EA555140EA56506FF067
:10553000020202EB2E4201EB025585EACE710AD03F
:105540005FEA440C18BF24F0004450F1000041F120
:10555000000120EAD47040F2FE7C624500D270BDAA
:10556000A84214BF4FF080444FF04044002E08BFC3
:105570000024BEF1806FA8BFA1F1C041BDE870401A
:1055800080F282804FF0000001F1C04101F0004143
:1055900070479EEA0C0F0CEA131518BF95EA0C0F22
:1055A00006D04FF0000081EA030E0EF0004170BDFE
:1055B00000F01CF88900013E00F007B800F009B8BF
:1055C0004FEA430C5FEA5C5C08D081EA030100F01B
:1055D0005BB84FEA410C5FEA5C5CF6D14FF000002B
:1055E000014970470000FF070000F87F0EF1020E2E
:1055F0002EF0030E5EF8046B364205D4012A43EB0D
:10560000030515F5001F12D8012841EB010C1CF50C
:10561000001F0CD80ED14FEAD17C15F5001F0CEB02
:105620004C0C0CF1020C08BF4CEBD37C04E04FF0A7
:10563000080C01E04FEAD37C0CEB4C0526FA05F68A
:1056400006F00706B6F1040C06D20EEB860CBDE898
:1056500070404CF0010C6047DFE80CF0090B0202CF
:105660004FF000414FF00000A1F5002170BD194638
:105670001046012851EB010418BFD4F5001484BF73
:10568000002001F0004170BD0808A0F500114FEAAC
:105690003101704753EA010C17D41CF5801F58BF25
:1056A000BCF5801F00F106808B4218BF704708BF11
:1056B0008242704707D713F5801F58BF11F5801F2E
:1056C00019D48B4270479B4270471CF5801F08D548
:1056D000BCF5801FF7D5994218BF704708BF9042AC
:1056E00070474FF4001C1CEB430F38BF1CEB410FFD
:1056F00001D2994270470FB40CBC03BCFFF7C1BE86
:1057000010B591EA030F48BF83F000433FF540AC6A
:10571000841A71EB030C07D212198CF0004C43EB86
:105720000C03001B61EB0C01DFF8A4E14FEA1154FC
:10573000A4EB135C1EEA430F18BF9EEA445F00F01F
:10574000B08023EA6E03524221EA0451C3EB6E0398
:1057500038BF5B1EDCF1200E25D322FA0CFE10EBC5
:105760000E0043FA0CFE41EB0E01CCF1200E03FAC1
:105770000EFE10EB0E0051F10001CCF1200E29D4E9
:1057800012FA0EF201EB0451BDE8104058BF704709
:10579000401C1CBFB2F1004F704700280CBF491CD1
:1057A00020F00100704712EB020E43EB030218BF1A
:1057B0004FF0010E4EEA4202ACF1200CDCF11E0E5D
:1057C00054D943FA0CFE10EB0E0051F1FF31CCF12D
:1057D0001E0ED5D50EF1010E12FA0EFE404141EB20
:1057E000010101EB445C5FEA5C5C10D910EBDE70F8
:1057F00001EB045138BFBEF1004FBDE8104018BFA7
:10580000704700280CBF491C20F00100704730D2BF
:105810004FEAD42C11F5001124F400641BD0B1FA26
:1058200081F20B3AA41AA41ED2F12003914030FA5F
:1058300003F31943904001EBCC71002C01EB0451B0
:10584000BDE81040A8BF704701F1C0414FF0000013
:1058500001F000417047B0FA80F310FA03F100D173
:1058600010BDE41A173C4805C90AE4E701EB0451EE
:1058700010BD491001EB0451BDE810404FEA300063
:1058800002E04FF0000170474A0008BF0042F8D024
:10589000B2F5001F28BF704701F000414FF0000033
:1058A00070479EEA445F07D011EA5E0FBDE81040E2
:1058B00004BF002100207047BDE8104070B5FFF71D
:1058C00095FE00BF40DFF63E83F000411046704772
:1058D0000000E0FF43004FEAD30C4FEA3C0C43408A
:1058E0001FBF40070CF1605113F0FE4F70471CF0D2
:1058F000006F03D100200CF0004170470CF0004312
:1059000043EA507010B540EACC0000F000F900BF47
:10591000000000924FEA0001FFF7B6BE4FF00041D1
:105920004FF00000A1F50021704700004FF47F0CFC
:105930001CEAD0121EBF1CEAD11392EA0C0F93EAA4
:105940000C0F00F0858090EA010F48BF42F480728E
:1059500040F4000C41F400002CF07F4120F07F4027
:1059600000B58142A2EB03020FF2081CACEB504ED3
:10597000C0F100009EF800E04FEA4E0E00FB0EFC66
:1059800038BF49004FEA2C1C02F5FA020CFB0EF35B
:105990004FEACE1E4FEA112C4FEAC1210EEB635E97
:1059A00042EB22420EFB0CFC4FEA1C5300FB03119E
:1059B0004FEA112C4FEA01310EFB0CFC4FEADC4C94
:1059C00000FB0C11C14228BF09184CEB03335DF8F2
:1059D00004EB10EB410143EBC250B2F57C0F38BF32
:1059E000704729D512F0F00F1CBF00F1C04000F045
:1059F00000407047008182838485868788898B8CEC
:105A00008D8E8F919293959697999A9C9D9FA0A227
:105A1000A3A5A7A8AAACAEB0B2B3B5B7B9BCBEC077
:105A2000C2C5C7C9CCCED1D4D7D9DCDFE2E6E9EC18
:105A3000F0F3F7FAFE0000004FEA400C0CF1807C16
:105A4000BCF17E4F28BF7047B0F1C04000F0A5B850
:105A500090EA010F0CEAD11348BF42F4807262450C
:105A600038BF634507D213F47F0F16D080EA0100D8
:105A700000F00040704710B500F049F8097EFC3E88
:105A800000F005B880EA010000F00040704780EAAD
:105A9000010000F0004000F080B812F47F0F04BF56
:105AA0000248704780EA010000F077B80000C07F2C
:105AB00041000B0ED3F19E0208D950F400034FEAC7
:105AC000032323FA02F048BF4042704710B500F0AC
:105AD0001EF800BF49922480002070476FF00042FA
